{
  "contractName": "MedicalResult",
  "abi": [
    {
      "inputs": [],
      "stateMutability": "nonpayable",
      "type": "constructor"
    },
    {
      "anonymous": false,
      "inputs": [
        {
          "indexed": true,
          "internalType": "address",
          "name": "owner",
          "type": "address"
        },
        {
          "indexed": true,
          "internalType": "address",
          "name": "approved",
          "type": "address"
        },
        {
          "indexed": true,
          "internalType": "uint256",
          "name": "tokenId",
          "type": "uint256"
        }
      ],
      "name": "Approval",
      "type": "event"
    },
    {
      "anonymous": false,
      "inputs": [
        {
          "indexed": true,
          "internalType": "address",
          "name": "owner",
          "type": "address"
        },
        {
          "indexed": true,
          "internalType": "address",
          "name": "operator",
          "type": "address"
        },
        {
          "indexed": false,
          "internalType": "bool",
          "name": "approved",
          "type": "bool"
        }
      ],
      "name": "ApprovalForAll",
      "type": "event"
    },
    {
      "anonymous": false,
      "inputs": [
        {
          "indexed": true,
          "internalType": "address",
          "name": "from",
          "type": "address"
        },
        {
          "indexed": true,
          "internalType": "address",
          "name": "to",
          "type": "address"
        },
        {
          "indexed": true,
          "internalType": "uint256",
          "name": "tokenId",
          "type": "uint256"
        }
      ],
      "name": "Transfer",
      "type": "event"
    },
    {
      "inputs": [
        {
          "internalType": "address",
          "name": "to",
          "type": "address"
        },
        {
          "internalType": "uint256",
          "name": "tokenId",
          "type": "uint256"
        }
      ],
      "name": "approve",
      "outputs": [],
      "stateMutability": "nonpayable",
      "type": "function"
    },
    {
      "inputs": [
        {
          "internalType": "address",
          "name": "owner",
          "type": "address"
        }
      ],
      "name": "balanceOf",
      "outputs": [
        {
          "internalType": "uint256",
          "name": "",
          "type": "uint256"
        }
      ],
      "stateMutability": "view",
      "type": "function",
      "constant": true
    },
    {
      "inputs": [
        {
          "internalType": "uint256",
          "name": "tokenId",
          "type": "uint256"
        }
      ],
      "name": "getApproved",
      "outputs": [
        {
          "internalType": "address",
          "name": "",
          "type": "address"
        }
      ],
      "stateMutability": "view",
      "type": "function",
      "constant": true
    },
    {
      "inputs": [
        {
          "internalType": "address",
          "name": "owner",
          "type": "address"
        },
        {
          "internalType": "address",
          "name": "operator",
          "type": "address"
        }
      ],
      "name": "isApprovedForAll",
      "outputs": [
        {
          "internalType": "bool",
          "name": "",
          "type": "bool"
        }
      ],
      "stateMutability": "view",
      "type": "function",
      "constant": true
    },
    {
      "inputs": [],
      "name": "name",
      "outputs": [
        {
          "internalType": "string",
          "name": "",
          "type": "string"
        }
      ],
      "stateMutability": "view",
      "type": "function",
      "constant": true
    },
    {
      "inputs": [],
      "name": "nextTokenId",
      "outputs": [
        {
          "internalType": "uint256",
          "name": "",
          "type": "uint256"
        }
      ],
      "stateMutability": "view",
      "type": "function",
      "constant": true
    },
    {
      "inputs": [
        {
          "internalType": "uint256",
          "name": "tokenId",
          "type": "uint256"
        }
      ],
      "name": "ownerOf",
      "outputs": [
        {
          "internalType": "address",
          "name": "",
          "type": "address"
        }
      ],
      "stateMutability": "view",
      "type": "function",
      "constant": true
    },
    {
      "inputs": [
        {
          "internalType": "address",
          "name": "from",
          "type": "address"
        },
        {
          "internalType": "address",
          "name": "to",
          "type": "address"
        },
        {
          "internalType": "uint256",
          "name": "tokenId",
          "type": "uint256"
        }
      ],
      "name": "safeTransferFrom",
      "outputs": [],
      "stateMutability": "nonpayable",
      "type": "function"
    },
    {
      "inputs": [
        {
          "internalType": "address",
          "name": "from",
          "type": "address"
        },
        {
          "internalType": "address",
          "name": "to",
          "type": "address"
        },
        {
          "internalType": "uint256",
          "name": "tokenId",
          "type": "uint256"
        },
        {
          "internalType": "bytes",
          "name": "_data",
          "type": "bytes"
        }
      ],
      "name": "safeTransferFrom",
      "outputs": [],
      "stateMutability": "nonpayable",
      "type": "function"
    },
    {
      "inputs": [
        {
          "internalType": "address",
          "name": "operator",
          "type": "address"
        },
        {
          "internalType": "bool",
          "name": "approved",
          "type": "bool"
        }
      ],
      "name": "setApprovalForAll",
      "outputs": [],
      "stateMutability": "nonpayable",
      "type": "function"
    },
    {
      "inputs": [
        {
          "internalType": "bytes4",
          "name": "interfaceId",
          "type": "bytes4"
        }
      ],
      "name": "supportsInterface",
      "outputs": [
        {
          "internalType": "bool",
          "name": "",
          "type": "bool"
        }
      ],
      "stateMutability": "view",
      "type": "function",
      "constant": true
    },
    {
      "inputs": [],
      "name": "symbol",
      "outputs": [
        {
          "internalType": "string",
          "name": "",
          "type": "string"
        }
      ],
      "stateMutability": "view",
      "type": "function",
      "constant": true
    },
    {
      "inputs": [
        {
          "internalType": "uint256",
          "name": "tokenId",
          "type": "uint256"
        }
      ],
      "name": "tokenURI",
      "outputs": [
        {
          "internalType": "string",
          "name": "",
          "type": "string"
        }
      ],
      "stateMutability": "view",
      "type": "function",
      "constant": true
    },
    {
      "inputs": [
        {
          "internalType": "address",
          "name": "from",
          "type": "address"
        },
        {
          "internalType": "address",
          "name": "to",
          "type": "address"
        },
        {
          "internalType": "uint256",
          "name": "tokenId",
          "type": "uint256"
        }
      ],
      "name": "transferFrom",
      "outputs": [],
      "stateMutability": "nonpayable",
      "type": "function"
    },
    {
      "inputs": [
        {
          "internalType": "address",
          "name": "",
          "type": "address"
        },
        {
          "internalType": "uint256",
          "name": "",
          "type": "uint256"
        }
      ],
      "name": "userTokenIds",
      "outputs": [
        {
          "internalType": "uint256",
          "name": "",
          "type": "uint256"
        }
      ],
      "stateMutability": "view",
      "type": "function",
      "constant": true
    },
    {
      "inputs": [
        {
          "internalType": "address",
          "name": "to",
          "type": "address"
        },
        {
          "internalType": "string",
          "name": "result",
          "type": "string"
        }
      ],
      "name": "mint",
      "outputs": [],
      "stateMutability": "nonpayable",
      "type": "function"
    },
    {
      "inputs": [
        {
          "internalType": "uint256",
          "name": "tokenId",
          "type": "uint256"
        },
        {
          "internalType": "address",
          "name": "patient",
          "type": "address"
        }
      ],
      "name": "resultData",
      "outputs": [
        {
          "internalType": "string",
          "name": "",
          "type": "string"
        }
      ],
      "stateMutability": "view",
      "type": "function",
      "constant": true
    },
    {
      "inputs": [
        {
          "internalType": "address",
          "name": "patient",
          "type": "address"
        }
      ],
      "name": "tokenIds",
      "outputs": [
        {
          "internalType": "uint256[]",
          "name": "",
          "type": "uint256[]"
        }
      ],
      "stateMutability": "view",
      "type": "function",
      "constant": true
    }
  ],
  "bytecode": "0x608060405260016007553480156200001657600080fd5b506040518060400160405280600e81526020017f4d65646963616c20526573756c740000000000000000000000000000000000008152506040518060400160405280600281526020017f4d5200000000000000000000000000000000000000000000000000000000000081525081600090805190602001906200009b929190620000bd565b508060019080519060200190620000b4929190620000bd565b505050620001d2565b828054620000cb906200016d565b90600052602060002090601f016020900481019282620000ef57600085556200013b565b82601f106200010a57805160ff19168380011785556200013b565b828001600101855582156200013b579182015b828111156200013a5782518255916020019190600101906200011d565b5b5090506200014a91906200014e565b5090565b5b80821115620001695760008160009055506001016200014f565b5090565b600060028204905060018216806200018657607f821691505b602082108114156200019d576200019c620001a3565b5b50919050565b7f4e487b7100000000000000000000000000000000000000000000000000000000600052602260045260246000fd5b612f0980620001e26000396000f3fe608060405234801561001057600080fd5b50600436106101165760003560e01c806375794a3c116100a2578063c87b56dd11610071578063c87b56dd146102f1578063cc17e15d14610321578063d0def52114610351578063e985e9c51461036d578063fc97a3031461039d57610116565b806375794a3c1461027d57806395d89b411461029b578063a22cb465146102b9578063b88d4fde146102d557610116565b806323b872dd116100e957806323b872dd146101b557806342842e0e146101d15780634aa4b04a146101ed5780636352211e1461021d57806370a082311461024d57610116565b806301ffc9a71461011b57806306fdde031461014b578063081812fc14610169578063095ea7b314610199575b600080fd5b61013560048036038101906101309190611efb565b6103cd565b6040516101429190612808565b60405180910390f35b6101536104af565b6040516101609190612823565b60405180910390f35b610183600480360381019061017e9190611f4d565b610541565b604051610190919061277f565b60405180910390f35b6101b360048036038101906101ae9190611ebf565b6105c6565b005b6101cf60048036038101906101ca9190611d65565b6106de565b005b6101eb60048036038101906101e69190611d65565b61073e565b005b61020760048036038101906102029190611f76565b61075e565b6040516102149190612823565b60405180910390f35b61023760048036038101906102329190611f4d565b6107e7565b604051610244919061277f565b60405180910390f35b61026760048036038101906102629190611d00565b610899565b6040516102749190612a65565b60405180910390f35b610285610951565b6040516102929190612a65565b60405180910390f35b6102a3610957565b6040516102b09190612823565b60405180910390f35b6102d360048036038101906102ce9190611e2f565b6109e9565b005b6102ef60048036038101906102ea9190611db4565b6109ff565b005b61030b60048036038101906103069190611f4d565b610a61565b6040516103189190612823565b60405180910390f35b61033b60048036038101906103369190611ebf565b610bb3565b6040516103489190612a65565b60405180910390f35b61036b60048036038101906103669190611e6b565b610be4565b005b61038760048036038101906103829190611d29565b610c7c565b6040516103949190612808565b60405180910390f35b6103b760048036038101906103b29190611d00565b610d10565b6040516103c491906127e6565b60405180910390f35b60007f80ac58cd000000000000000000000000000000000000000000000000000000007bffffffffffffffffffffffffffffffffffffffffffffffffffffffff1916827bffffffffffffffffffffffffffffffffffffffffffffffffffffffff1916148061049857507f5b5e139f000000000000000000000000000000000000000000000000000000007bffffffffffffffffffffffffffffffffffffffffffffffffffffffff1916827bffffffffffffffffffffffffffffffffffffffffffffffffffffffff1916145b806104a857506104a782610da7565b5b9050919050565b6060600080546104be90612cfe565b80601f01602080910402602001604051908101604052809291908181526020018280546104ea90612cfe565b80156105375780601f1061050c57610100808354040283529160200191610537565b820191906000526020600020905b81548152906001019060200180831161051a57829003601f168201915b5050505050905090565b600061054c82610e11565b61058b576040517f08c379a0000000000000000000000000000000000000000000000000000000008152600401610582906129c5565b60405180910390fd5b6004600083815260200190815260200160002060009054906101000a900473ffffffffffffffffffffffffffffffffffffffff169050919050565b60006105d1826107e7565b90508073ffffffffffffffffffffffffffffffffffffffff168373ffffffffffffffffffffffffffffffffffffffff161415610642576040517f08c379a000000000000000000000000000000000000000000000000000000000815260040161063990612a25565b60405180910390fd5b8073ffffffffffffffffffffffffffffffffffffffff16610661610e7d565b73ffffffffffffffffffffffffffffffffffffffff161480610690575061068f8161068a610e7d565b610c7c565b5b6106cf576040517f08c379a00000000000000000000000000000000000000000000000000000000081526004016106c6906128e5565b60405180910390fd5b6106d98383610e85565b505050565b6106ef6106e9610e7d565b82610f3e565b61072e576040517f08c379a000000000000000000000000000000000000000000000000000000000815260040161072590612a45565b60405180910390fd5b61073983838361101c565b505050565b610759838383604051806020016040528060008152506109ff565b505050565b60608173ffffffffffffffffffffffffffffffffffffffff16610780846107e7565b73ffffffffffffffffffffffffffffffffffffffff16146107d6576040517f08c379a00000000000000000000000000000000000000000000000000000000081526004016107cd906129a5565b60405180910390fd5b6107df83610a61565b905092915050565b6000806002600084815260200190815260200160002060009054906101000a900473ffffffffffffffffffffffffffffffffffffffff169050600073ffffffffffffffffffffffffffffffffffffffff168173ffffffffffffffffffffffffffffffffffffffff161415610890576040517f08c379a000000000000000000000000000000000000000000000000000000000815260040161088790612925565b60405180910390fd5b80915050919050565b60008073ffffffffffffffffffffffffffffffffffffffff168273ffffffffffffffffffffffffffffffffffffffff16141561090a576040517f08c379a000000000000000000000000000000000000000000000000000000000815260040161090190612905565b60405180910390fd5b600360008373ffffffffffffffffffffffffffffffffffffffff1673ffffffffffffffffffffffffffffffffffffffff168152602001908152602001600020549050919050565b60075481565b60606001805461096690612cfe565b80601f016020809104026020016040519081016040528092919081815260200182805461099290612cfe565b80156109df5780601f106109b4576101008083540402835291602001916109df565b820191906000526020600020905b8154815290600101906020018083116109c257829003601f168201915b5050505050905090565b6109fb6109f4610e7d565b8383611278565b5050565b610a10610a0a610e7d565b83610f3e565b610a4f576040517f08c379a0000000000000000000000000000000000000000000000000000000008152600401610a4690612a45565b60405180910390fd5b610a5b848484846113e5565b50505050565b6060610a6c82610e11565b610aab576040517f08c379a0000000000000000000000000000000000000000000000000000000008152600401610aa290612985565b60405180910390fd5b6000600660008481526020019081526020016000208054610acb90612cfe565b80601f0160208091040260200160405190810160405280929190818152602001828054610af790612cfe565b8015610b445780601f10610b1957610100808354040283529160200191610b44565b820191906000526020600020905b815481529060010190602001808311610b2757829003601f168201915b505050505090506000610b55611441565b9050600081511415610b6b578192505050610bae565b600082511115610ba0578082604051602001610b8892919061275b565b60405160208183030381529060405292505050610bae565b610ba984611458565b925050505b919050565b60086020528160005260406000208181548110610bcf57600080fd5b90600052602060002001600091509150505481565b610bf0826007546114ff565b600860008373ffffffffffffffffffffffffffffffffffffffff1673ffffffffffffffffffffffffffffffffffffffff1681526020019081526020016000206007549080600181540180825580915050600190039060005260206000200160009091909190915055610c7860076000815480929190610c6e90612d30565b919050558261151d565b5050565b6000600560008473ffffffffffffffffffffffffffffffffffffffff1673ffffffffffffffffffffffffffffffffffffffff16815260200190815260200160002060008373ffffffffffffffffffffffffffffffffffffffff1673ffffffffffffffffffffffffffffffffffffffff16815260200190815260200160002060009054906101000a900460ff16905092915050565b6060600860008373ffffffffffffffffffffffffffffffffffffffff1673ffffffffffffffffffffffffffffffffffffffff168152602001908152602001600020805480602002602001604051908101604052809291908181526020018280548015610d9b57602002820191906000526020600020905b815481526020019060010190808311610d87575b50505050509050919050565b60007f01ffc9a7000000000000000000000000000000000000000000000000000000007bffffffffffffffffffffffffffffffffffffffffffffffffffffffff1916827bffffffffffffffffffffffffffffffffffffffffffffffffffffffff1916149050919050565b60008073ffffffffffffffffffffffffffffffffffffffff166002600084815260200190815260200160002060009054906101000a900473ffffffffffffffffffffffffffffffffffffffff1673ffffffffffffffffffffffffffffffffffffffff1614159050919050565b600033905090565b816004600083815260200190815260200160002060006101000a81548173ffffffffffffffffffffffffffffffffffffffff021916908373ffffffffffffffffffffffffffffffffffffffff160217905550808273ffffffffffffffffffffffffffffffffffffffff16610ef8836107e7565b73ffffffffffffffffffffffffffffffffffffffff167f8c5be1e5ebec7d5bd14f71427d1e84f3dd0314c0f7b2291e5b200ac8c7c3b92560405160405180910390a45050565b6000610f4982610e11565b610f88576040517f08c379a0000000000000000000000000000000000000000000000000000000008152600401610f7f906128c5565b60405180910390fd5b6000610f93836107e7565b90508073ffffffffffffffffffffffffffffffffffffffff168473ffffffffffffffffffffffffffffffffffffffff16148061100257508373ffffffffffffffffffffffffffffffffffffffff16610fea84610541565b73ffffffffffffffffffffffffffffffffffffffff16145b8061101357506110128185610c7c565b5b91505092915050565b8273ffffffffffffffffffffffffffffffffffffffff1661103c826107e7565b73ffffffffffffffffffffffffffffffffffffffff1614611092576040517f08c379a0000000000000000000000000000000000000000000000000000000008152600401611089906129e5565b60405180910390fd5b600073ffffffffffffffffffffffffffffffffffffffff168273ffffffffffffffffffffffffffffffffffffffff161415611102576040517f08c379a00000000000000000000000000000000000000000000000000000000081526004016110f990612885565b60405180910390fd5b61110d83838361152b565b611118600082610e85565b6001600360008573ffffffffffffffffffffffffffffffffffffffff1673ffffffffffffffffffffffffffffffffffffffff16815260200190815260200160002060008282546111689190612c14565b925050819055506001600360008473ffffffffffffffffffffffffffffffffffffffff1673ffffffffffffffffffffffffffffffffffffffff16815260200190815260200160002060008282546111bf9190612b8d565b92505081905550816002600083815260200190815260200160002060006101000a81548173ffffffffffffffffffffffffffffffffffffffff021916908373ffffffffffffffffffffffffffffffffffffffff160217905550808273ffffffffffffffffffffffffffffffffffffffff168473ffffffffffffffffffffffffffffffffffffffff167fddf252ad1be2c89b69c2b068fc378daa952ba7f163c4a11628f55a4df523b3ef60405160405180910390a4505050565b8173ffffffffffffffffffffffffffffffffffffffff168373ffffffffffffffffffffffffffffffffffffffff1614156112e7576040517f08c379a00000000000000000000000000000000000000000000000000000000081526004016112de906128a5565b60405180910390fd5b80600560008573ffffffffffffffffffffffffffffffffffffffff1673ffffffffffffffffffffffffffffffffffffffff16815260200190815260200160002060008473ffffffffffffffffffffffffffffffffffffffff1673ffffffffffffffffffffffffffffffffffffffff16815260200190815260200160002060006101000a81548160ff0219169083151502179055508173ffffffffffffffffffffffffffffffffffffffff168373ffffffffffffffffffffffffffffffffffffffff167f17307eab39ab6107e8899845ad3d59bd9653f200f220920489ca2b5937696c31836040516113d89190612808565b60405180910390a3505050565b6113f084848461101c565b6113fc84848484611530565b61143b576040517f08c379a000000000000000000000000000000000000000000000000000000000815260040161143290612845565b60405180910390fd5b50505050565b606060405180602001604052806000815250905090565b606061146382610e11565b6114a2576040517f08c379a000000000000000000000000000000000000000000000000000000000815260040161149990612a05565b60405180910390fd5b60006114ac611441565b905060008151116114cc57604051806020016040528060008152506114f7565b806114d6846116c7565b6040516020016114e792919061275b565b6040516020818303038152906040525b915050919050565b611519828260405180602001604052806000815250611874565b5050565b61152782826118cf565b5050565b505050565b60006115518473ffffffffffffffffffffffffffffffffffffffff16611943565b156116ba578373ffffffffffffffffffffffffffffffffffffffff1663150b7a0261157a610e7d565b8786866040518563ffffffff1660e01b815260040161159c949392919061279a565b602060405180830381600087803b1580156115b657600080fd5b505af19250505080156115e757506040513d601f19601f820116820180604052508101906115e49190611f24565b60015b61166a573d8060008114611617576040519150601f19603f3d011682016040523d82523d6000602084013e61161c565b606091505b50600081511415611662576040517f08c379a000000000000000000000000000000000000000000000000000000000815260040161165990612845565b60405180910390fd5b805181602001fd5b63150b7a0260e01b7bffffffffffffffffffffffffffffffffffffffffffffffffffffffff1916817bffffffffffffffffffffffffffffffffffffffffffffffffffffffff1916149150506116bf565b600190505b949350505050565b6060600082141561170f576040518060400160405280600181526020017f3000000000000000000000000000000000000000000000000000000000000000815250905061186f565b600082905060005b6000821461174157808061172a90612d30565b915050600a8261173a9190612be3565b9150611717565b60008167ffffffffffffffff811115611783577f4e487b7100000000000000000000000000000000000000000000000000000000600052604160045260246000fd5b6040519080825280601f01601f1916602001820160405280156117b55781602001600182028036833780820191505090505b5090505b60008514611868576001826117ce9190612c14565b9150600a856117dd9190612d79565b60306117e99190612b8d565b60f81b818381518110611825577f4e487b7100000000000000000000000000000000000000000000000000000000600052603260045260246000fd5b60200101907effffffffffffffffffffffffffffffffffffffffffffffffffffffffffffff1916908160001a905350600a856118619190612be3565b94506117b9565b8093505050505b919050565b61187e8383611956565b61188b6000848484611530565b6118ca576040517f08c379a00000000000000000000000000000000000000000000000000000000081526004016118c190612845565b60405180910390fd5b505050565b6118d882610e11565b611917576040517f08c379a000000000000000000000000000000000000000000000000000000000815260040161190e90612945565b60405180910390fd5b8060066000848152602001908152602001600020908051906020019061193e929190611b24565b505050565b600080823b905060008111915050919050565b600073ffffffffffffffffffffffffffffffffffffffff168273ffffffffffffffffffffffffffffffffffffffff1614156119c6576040517f08c379a00000000000000000000000000000000000000000000000000000000081526004016119bd90612965565b60405180910390fd5b6119cf81610e11565b15611a0f576040517f08c379a0000000000000000000000000000000000000000000000000000000008152600401611a0690612865565b60405180910390fd5b611a1b6000838361152b565b6001600360008473ffffffffffffffffffffffffffffffffffffffff1673ffffffffffffffffffffffffffffffffffffffff1681526020019081526020016000206000828254611a6b9190612b8d565b92505081905550816002600083815260200190815260200160002060006101000a81548173ffffffffffffffffffffffffffffffffffffffff021916908373ffffffffffffffffffffffffffffffffffffffff160217905550808273ffffffffffffffffffffffffffffffffffffffff16600073ffffffffffffffffffffffffffffffffffffffff167fddf252ad1be2c89b69c2b068fc378daa952ba7f163c4a11628f55a4df523b3ef60405160405180910390a45050565b828054611b3090612cfe565b90600052602060002090601f016020900481019282611b525760008555611b99565b82601f10611b6b57805160ff1916838001178555611b99565b82800160010185558215611b99579182015b82811115611b98578251825591602001919060010190611b7d565b5b509050611ba69190611baa565b5090565b5b80821115611bc3576000816000905550600101611bab565b5090565b6000611bda611bd584612ab1565b612a80565b905082815260208101848484011115611bf257600080fd5b611bfd848285612cbc565b509392505050565b6000611c18611c1384612ae1565b612a80565b905082815260208101848484011115611c3057600080fd5b611c3b848285612cbc565b509392505050565b600081359050611c5281612e77565b92915050565b600081359050611c6781612e8e565b92915050565b600081359050611c7c81612ea5565b92915050565b600081519050611c9181612ea5565b92915050565b600082601f830112611ca857600080fd5b8135611cb8848260208601611bc7565b91505092915050565b600082601f830112611cd257600080fd5b8135611ce2848260208601611c05565b91505092915050565b600081359050611cfa81612ebc565b92915050565b600060208284031215611d1257600080fd5b6000611d2084828501611c43565b91505092915050565b60008060408385031215611d3c57600080fd5b6000611d4a85828601611c43565b9250506020611d5b85828601611c43565b9150509250929050565b600080600060608486031215611d7a57600080fd5b6000611d8886828701611c43565b9350506020611d9986828701611c43565b9250506040611daa86828701611ceb565b9150509250925092565b60008060008060808587031215611dca57600080fd5b6000611dd887828801611c43565b9450506020611de987828801611c43565b9350506040611dfa87828801611ceb565b925050606085013567ffffffffffffffff811115611e1757600080fd5b611e2387828801611c97565b91505092959194509250565b60008060408385031215611e4257600080fd5b6000611e5085828601611c43565b9250506020611e6185828601611c58565b9150509250929050565b60008060408385031215611e7e57600080fd5b6000611e8c85828601611c43565b925050602083013567ffffffffffffffff811115611ea957600080fd5b611eb585828601611cc1565b9150509250929050565b60008060408385031215611ed257600080fd5b6000611ee085828601611c43565b9250506020611ef185828601611ceb565b9150509250929050565b600060208284031215611f0d57600080fd5b6000611f1b84828501611c6d565b91505092915050565b600060208284031215611f3657600080fd5b6000611f4484828501611c82565b91505092915050565b600060208284031215611f5f57600080fd5b6000611f6d84828501611ceb565b91505092915050565b60008060408385031215611f8957600080fd5b6000611f9785828601611ceb565b9250506020611fa885828601611c43565b9150509250929050565b6000611fbe838361273d565b60208301905092915050565b611fd381612c48565b82525050565b6000611fe482612b21565b611fee8185612b4f565b9350611ff983612b11565b8060005b8381101561202a5781516120118882611fb2565b975061201c83612b42565b925050600181019050611ffd565b5085935050505092915050565b61204081612c5a565b82525050565b600061205182612b2c565b61205b8185612b60565b935061206b818560208601612ccb565b61207481612e66565b840191505092915050565b600061208a82612b37565b6120948185612b71565b93506120a4818560208601612ccb565b6120ad81612e66565b840191505092915050565b60006120c382612b37565b6120cd8185612b82565b93506120dd818560208601612ccb565b80840191505092915050565b60006120f6603283612b71565b91507f4552433732313a207472616e7366657220746f206e6f6e20455243373231526560008301527f63656976657220696d706c656d656e74657200000000000000000000000000006020830152604082019050919050565b600061215c601c83612b71565b91507f4552433732313a20746f6b656e20616c7265616479206d696e746564000000006000830152602082019050919050565b600061219c602483612b71565b91507f4552433732313a207472616e7366657220746f20746865207a65726f2061646460008301527f72657373000000000000000000000000000000000000000000000000000000006020830152604082019050919050565b6000612202601983612b71565b91507f4552433732313a20617070726f766520746f2063616c6c6572000000000000006000830152602082019050919050565b6000612242602c83612b71565b91507f4552433732313a206f70657261746f7220717565727920666f72206e6f6e657860008301527f697374656e7420746f6b656e00000000000000000000000000000000000000006020830152604082019050919050565b60006122a8603883612b71565b91507f4552433732313a20617070726f76652063616c6c6572206973206e6f74206f7760008301527f6e6572206e6f7220617070726f76656420666f7220616c6c00000000000000006020830152604082019050919050565b600061230e602a83612b71565b91507f4552433732313a2062616c616e636520717565727920666f7220746865207a6560008301527f726f2061646472657373000000000000000000000000000000000000000000006020830152604082019050919050565b6000612374602983612b71565b91507f4552433732313a206f776e657220717565727920666f72206e6f6e657869737460008301527f656e7420746f6b656e00000000000000000000000000000000000000000000006020830152604082019050919050565b60006123da602e83612b71565b91507f45524337323155524953746f726167653a2055524920736574206f66206e6f6e60008301527f6578697374656e7420746f6b656e0000000000000000000000000000000000006020830152604082019050919050565b6000612440602083612b71565b91507f4552433732313a206d696e7420746f20746865207a65726f20616464726573736000830152602082019050919050565b6000612480603183612b71565b91507f45524337323155524953746f726167653a2055524920717565727920666f722060008301527f6e6f6e6578697374656e7420746f6b656e0000000000000000000000000000006020830152604082019050919050565b60006124e6603383612b71565b91507f4d65646963616c526573756c743a3a4f6e6c79207468652070617469656e742060008301527f63616e207365652068697320726573756c7421000000000000000000000000006020830152604082019050919050565b600061254c602c83612b71565b91507f4552433732313a20617070726f76656420717565727920666f72206e6f6e657860008301527f697374656e7420746f6b656e00000000000000000000000000000000000000006020830152604082019050919050565b60006125b2602983612b71565b91507f4552433732313a207472616e73666572206f6620746f6b656e2074686174206960008301527f73206e6f74206f776e00000000000000000000000000000000000000000000006020830152604082019050919050565b6000612618602f83612b71565b91507f4552433732314d657461646174613a2055524920717565727920666f72206e6f60008301527f6e6578697374656e7420746f6b656e00000000000000000000000000000000006020830152604082019050919050565b600061267e602183612b71565b91507f4552433732313a20617070726f76616c20746f2063757272656e74206f776e6560008301527f72000000000000000000000000000000000000000000000000000000000000006020830152604082019050919050565b60006126e4603183612b71565b91507f4552433732313a207472616e736665722063616c6c6572206973206e6f74206f60008301527f776e6572206e6f7220617070726f7665640000000000000000000000000000006020830152604082019050919050565b61274681612cb2565b82525050565b61275581612cb2565b82525050565b600061276782856120b8565b915061277382846120b8565b91508190509392505050565b60006020820190506127946000830184611fca565b92915050565b60006080820190506127af6000830187611fca565b6127bc6020830186611fca565b6127c9604083018561274c565b81810360608301526127db8184612046565b905095945050505050565b600060208201905081810360008301526128008184611fd9565b905092915050565b600060208201905061281d6000830184612037565b92915050565b6000602082019050818103600083015261283d818461207f565b905092915050565b6000602082019050818103600083015261285e816120e9565b9050919050565b6000602082019050818103600083015261287e8161214f565b9050919050565b6000602082019050818103600083015261289e8161218f565b9050919050565b600060208201905081810360008301526128be816121f5565b9050919050565b600060208201905081810360008301526128de81612235565b9050919050565b600060208201905081810360008301526128fe8161229b565b9050919050565b6000602082019050818103600083015261291e81612301565b9050919050565b6000602082019050818103600083015261293e81612367565b9050919050565b6000602082019050818103600083015261295e816123cd565b9050919050565b6000602082019050818103600083015261297e81612433565b9050919050565b6000602082019050818103600083015261299e81612473565b9050919050565b600060208201905081810360008301526129be816124d9565b9050919050565b600060208201905081810360008301526129de8161253f565b9050919050565b600060208201905081810360008301526129fe816125a5565b9050919050565b60006020820190508181036000830152612a1e8161260b565b9050919050565b60006020820190508181036000830152612a3e81612671565b9050919050565b60006020820190508181036000830152612a5e816126d7565b9050919050565b6000602082019050612a7a600083018461274c565b92915050565b6000604051905081810181811067ffffffffffffffff82111715612aa757612aa6612e37565b5b8060405250919050565b600067ffffffffffffffff821115612acc57612acb612e37565b5b601f19601f8301169050602081019050919050565b600067ffffffffffffffff821115612afc57612afb612e37565b5b601f19601f8301169050602081019050919050565b6000819050602082019050919050565b600081519050919050565b600081519050919050565b600081519050919050565b6000602082019050919050565b600082825260208201905092915050565b600082825260208201905092915050565b600082825260208201905092915050565b600081905092915050565b6000612b9882612cb2565b9150612ba383612cb2565b9250827fffffffffffffffffffffffffffffffffffffffffffffffffffffffffffffffff03821115612bd857612bd7612daa565b5b828201905092915050565b6000612bee82612cb2565b9150612bf983612cb2565b925082612c0957612c08612dd9565b5b828204905092915050565b6000612c1f82612cb2565b9150612c2a83612cb2565b925082821015612c3d57612c3c612daa565b5b828203905092915050565b6000612c5382612c92565b9050919050565b60008115159050919050565b60007fffffffff0000000000000000000000000000000000000000000000000000000082169050919050565b600073ffffffffffffffffffffffffffffffffffffffff82169050919050565b6000819050919050565b82818337600083830152505050565b60005b83811015612ce9578082015181840152602081019050612cce565b83811115612cf8576000848401525b50505050565b60006002820490506001821680612d1657607f821691505b60208210811415612d2a57612d29612e08565b5b50919050565b6000612d3b82612cb2565b91507fffffffffffffffffffffffffffffffffffffffffffffffffffffffffffffffff821415612d6e57612d6d612daa565b5b600182019050919050565b6000612d8482612cb2565b9150612d8f83612cb2565b925082612d9f57612d9e612dd9565b5b828206905092915050565b7f4e487b7100000000000000000000000000000000000000000000000000000000600052601160045260246000fd5b7f4e487b7100000000000000000000000000000000000000000000000000000000600052601260045260246000fd5b7f4e487b7100000000000000000000000000000000000000000000000000000000600052602260045260246000fd5b7f4e487b7100000000000000000000000000000000000000000000000000000000600052604160045260246000fd5b6000601f19601f8301169050919050565b612e8081612c48565b8114612e8b57600080fd5b50565b612e9781612c5a565b8114612ea257600080fd5b50565b612eae81612c66565b8114612eb957600080fd5b50565b612ec581612cb2565b8114612ed057600080fd5b5056fea264697066735822122045875671f759089bf1e0d603925ac6be71e2364bc83f01175e0571f931dac6b564736f6c63430008000033",
  "immutableReferences": {},
  "source": "pragma solidity >= 0.6.0 <= 0.8.0;\r\n\r\nimport '@openzeppelin/contracts/token/ERC721/extensions/ERC721URIStorage.sol';\r\nimport '@openzeppelin/contracts/token/ERC721/ERC721.sol';\r\nimport './interfaces/IMedicalResult.sol';\r\n\r\ncontract MedicalResult is IMedicalResult, ERC721URIStorage{\r\n    uint256 public nextTokenId = 1;\r\n\r\n    mapping(address => uint256[]) public userTokenIds;\r\n\r\n    constructor () public ERC721(\"Medical Result\", \"MR\"){\r\n\r\n    }\r\n\r\n    function mint(address to, string memory result) override external{\r\n        _safeMint(to, nextTokenId);\r\n        userTokenIds[to].push(nextTokenId);\r\n        _setResultURI(nextTokenId++, result);\r\n    }\r\n\r\n    function _setResultURI(uint256 tokenId, string memory result) internal {\r\n        _setTokenURI(tokenId, result);\r\n    }\r\n\r\n    function resultData(uint256 tokenId, address patient) override external view returns(string memory){\r\n        require(ownerOf(tokenId) == patient, \"MedicalResult::Only the patient can see his result!\");\r\n        \r\n        return tokenURI(tokenId);\r\n    }\r\n\r\n    function tokenIds(address patient) override external view returns(uint256[] memory){\r\n        return userTokenIds[patient];\r\n    }\r\n}",
  "sourcePath": "D:/Modern Diagnostic/smart-contracts/contracts/MedicalResult.sol",
  "compiler": {
    "name": "solc",
    "version": "0.8.0+commit.c7dfd78e.Emscripten.clang"
  },
  "schemaVersion": "3.4.1",
  "updatedAt": "2021-12-18T22:36:13.263Z",
  "networkType": "ethereum",
  "devdoc": {
    "kind": "dev",
    "methods": {
      "approve(address,uint256)": {
        "details": "See {IERC721-approve}."
      },
      "balanceOf(address)": {
        "details": "See {IERC721-balanceOf}."
      },
      "getApproved(uint256)": {
        "details": "See {IERC721-getApproved}."
      },
      "isApprovedForAll(address,address)": {
        "details": "See {IERC721-isApprovedForAll}."
      },
      "name()": {
        "details": "See {IERC721Metadata-name}."
      },
      "ownerOf(uint256)": {
        "details": "See {IERC721-ownerOf}."
      },
      "safeTransferFrom(address,address,uint256)": {
        "details": "See {IERC721-safeTransferFrom}."
      },
      "safeTransferFrom(address,address,uint256,bytes)": {
        "details": "See {IERC721-safeTransferFrom}."
      },
      "setApprovalForAll(address,bool)": {
        "details": "See {IERC721-setApprovalForAll}."
      },
      "supportsInterface(bytes4)": {
        "details": "See {IERC165-supportsInterface}."
      },
      "symbol()": {
        "details": "See {IERC721Metadata-symbol}."
      },
      "tokenURI(uint256)": {
        "details": "See {IERC721Metadata-tokenURI}."
      },
      "transferFrom(address,address,uint256)": {
        "details": "See {IERC721-transferFrom}."
      }
    },
    "version": 1
  },
  "userdoc": {
    "kind": "user",
    "methods": {},
    "version": 1
  }
}